:020000040000FA
:0600000064EF02F01200A3
:0A0006000100E60400008000000085
:0400100020000000CC
:0C001400060EF66E000EF76E000EF86E81
:1000200000010900F550A56F0900F550A66F03E126
:10003000A56701D03DD00900F550A06F0900F5502B
:10004000A16F0900F550A26F09000900F550E96E93
:100050000900F550EA6E090009000900F550A36F88
:100060000900F550A46F09000900F6CFA7F0F7CFFB
:10007000A8F0F8CFA9F0A0C0F6FFA1C0F7FFA2C07A
:10008000F8FF0001A35302E1A45307E00900F55073
:10009000EE6EA307F8E2A407F9D7A7C0F6FFA8C041
:1000A000F7FFA9C0F8FF0001A507000EA65BBFD7A8
:0200B00012003C
:0E00B200D9CFE6FFE1CFD9FFF00E81169316ED
:1000C000939C939A93988A9C8A9A8A98F2EC01F06E
:1000D000300E33D8050EE66E27EC02F0E552300EF6
:1000E0002CD8010EE66E27EC02F0E552320E25D830
:1000F00029D8FEE127D8FEE1FE0EDBCFE6FF5BEC60
:1001000001F0E5521FD8FEE1080E17D81BD8FEE11A
:100110000F0E13D817D8FEE1010E0FD813D8FEE149
:10012000040E0BD80FD8FEE1800EE66EEEEC00F068
:10013000E552E552E7CFD9FF1200E66E5BEC01F025
:0C014000E55212003EEC02F00009120033
:04014C00D9CFE6FF22
:10015000E1CFD9FF040EE126DF68010EDB6A020E53
:10016000DB6A030EDB6AC168280EDF6EDFCFE6FFB5
:1001700059EC00F0E55229D8FEE1800E2AD825D8A6
:10018000FEE1800EE66E000EE66E06EC02F0E55231
:10019000E5521BD8FEE1C10E1CD817D8FEE1910E26
:1001A000E66E000EE66E06EC02F0E552E5520DD862
:1001B000FEE15F0EE66E38EC01F0E55206D8FEE196
:1001C000200E07D802D8FEE1FFD73EEC02F000096E
:0C01D0001200E66EEEEC00F0E5521200AA
:0401DC00D9CFE6FF92
:1001E000E1CFD9FFF00E93168116FE0EDB50800989
:1001F000E8380F0B0F0B81128A9C8A9A0DD8F00EEB
:100200008116FE0EDB500F0B811206D80F0E9312D3
:10021000E552E7CFD9FF1200EBEC01F08A88EBEC56
:0602200001F08A981200B3
:0A022600D9CFE6FFE1CFD9FFF00EBB
:1002300093168116FE0EDB504009E8380F0B0F0BAA
:1002400081128A9C8A9A0DD8F00E8116FE0EDB5020
:100250000F0B811206D80F0E9312E552E7CFD9FF8C
:100260001200EBEC01F08A88EBEC01F08A981200A6
:10027000D9CFE6FFE1CFD9FFF00E93168116FE0E1F
:10028000DB380F0B0F0B81128A8A8A9C0DD8F00E77
:100290008116FE0EDB500F0B811206D80F0E931243
:1002A000E552E7CFD9FF1200EBEC01F08A88EBECC6
:0602B00001F08A98120023
:0A02B600D9CFE6FFE1CFD9FFF00E2B
:1002C00093168116FE0EDB380F0B0F0B81128A9CE2
:1002D0008A9A0DD8F00E8116FE0EDB500F0B81129C
:1002E00006D80F0E9312E552E7CFD9FF1200EBECC0
:0C02F00001F08A88EBEC01F08A98120003
:0402FC00D9CFE6FF71
:10030000E1CFD9FFE6528A8C8A8AEBEC01F08A8829
:10031000EBEC01F08138F00BF00BDF6E8A98EBEC20
:1003200001F08A88EBEC01F00F0E8114DF128A983D
:100330008A9A8A9CDF50E552E552E7CFD9FF120036
:10034000D9CFE6FFE1CFD9FFE6528A8C8A9AEBEC4F
:1003500001F08A88EBEC01F08138F00BF00BDF6ED6
:100360008A98EBEC01F08A88EBEC01F00F0E811417
:10037000DF128A988A9C7F0EDF14E552E552E7CFA0
:04038000D9FF12008F
:0C038400D9CFE6FFE1CFD9FF14D80FE07D
:100390003EEC02F00009FCE10ED8E66E38EC01F00C
:1003A000E552FD0EDB2AFE0EF1E3DB2AEFD7E55224
:1003B000E7CFD9FF1200FD0EDBCFF6FFFE0EDBCF3D
:0803C000F7FF0800F5501200E0
:0803C80014D8190EDF5C02E2FB
:1003D000DF2AFBD716D00DD80A0EDF5C02E2DF2A37
:1003E000FBD70FD006D80A0EDF5C02E2DF2AFBD76C
:1003F00008D0D9CFE6FFE1CFD9FFE652DF6ADF6A46
:0C0400001200E552E552E7CFD9FF1200D0
:04040C00D9CFE6FF5F
:10041000E1CFD9FF14D80FE03EEC02F00009FCE177
:100420000ED8E66E38EC01F0E552FD0EDB2AFE0E2A
:10043000F1E3DB2AEFD7E552E7CFD9FF1200FD0E3B
:0E044000DBCFE9FFFE0EDBCFEAFFEF5012002C
:02044E00FF0E9F
:10045000E350036EEF0E01D0F30EE76EE72E2EEFA2
:1004600002F00C0E026EE76AE72E34EF02F0022E65
:0C04700033EF02F0032E2CEF02F012001C
:04047C008A8C8A9A42
:10048000EBEC01F08A88EBEC01F081A602D003D8F6
:10049000010C01D8000C8A98EBEC01F08A88EBEC97
:0804A00001F08A988A9C120009
:0804A800000EF36E00EE00F0FF
:1004B000060E01D81200EA6002D0EE6AFCD7F350B3
:0804C000E9601200EE6AFCD7AE
:0804C80015EE00F025EE00F036
:1004D000F86A019C0AEC00F072EC02F0A6EC00F065
:0404E000FBD7120034
:0204E400120004
:0A04E600204D4943524F434849504E
:1004F00020202020202000205049435F5543202009
:0605000020202020200055
:00000001FF
