:020000040000FA
:06000000D0EF23F0120016
:020006001200E6
:060008000FEF00F01200F2
:02000E000000F0
:020010001405D5
:0100120005E8
:0100130000EC
:0200140090005A
:020016000000E8
:0800180062EF00F01200DACFE4
:10002000E4FFE2CFDAFFE9CFE4FFEACFE4FFF6CF67
:10003000E4FFF7CFE4FFF8CFE4FFF5CFE4FFF3CF21
:10004000E4FFF4CFE4FFFACFE4FFFBCFE4FF00EEE0
:1000500028F0100EE80403E3EECFE4FFFBD700EE38
:1000600000F0280EE80403E3EECFE4FFFBD7E652EE
:1000700055EC22F0E55200EE27F0280EE80403E3E9
:10008000E5CFEDFFFBD700EE37F0100EE80403E3F9
:10009000E5CFEDFFFBD7E5CFFBFFE5CFFAFFE5CFDF
:1000A000F4FFE5CFF3FFE5CFF5FFE5CFF8FFE5CFB0
:1000B000F7FFE5CFF6FFE5CFEAFFE5CFE9FFE5CFB4
:1000C000DAFF1100DACFE4FFE2CFDAFFE9CFE4FF95
:1000D000EACFE4FFF6CFE4FFF7CFE4FFF8CFE4FF89
:1000E000F5CFE4FFF3CFE4FFF4CFE4FFFACFE4FF72
:1000F000FBCFE4FF00EE28F0100EE80403E3EECFA0
:10010000E4FFFBD700EE00F0280EE80403E3EECF97
:10011000E4FFFBD7E652F250040B01E0010E386E0B
:10012000396A3850391016E00F011251386E396AA9
:100130003850391001E012075CEC21F00F01135127
:100140001307000905E1140E136F0F01010E156F5F
:10015000F294F292BCEC1EF0E55200EE27F0280E6D
:10016000E80403E3E5CFEDFFFBD700EE37F0100E18
:10017000E80403E3E5CFEDFFFBD7E5CFFBFFE5CFD9
:10018000FAFFE5CFF4FFE5CFF3FFE5CFF5FFE5CFCD
:10019000F8FFE5CFF7FFE5CFF6FFE5CFEAFFE5CFC4
:1001A000E9FFE5CFDAFF11002AD80F011151006EE7
:1001B000016A040E001801E101501CE0030E001852
:1001C00001E1015015E0020E001801E101500EE0BE
:1001D000010E001801E1015007E0005001E101505B
:1001E00001E00BD055D809D05CD807D0A2D905D0F2
:1001F00018DB03D07BEC05F000D0D7D71200926853
:10020000010E936EBB0E946E956A9668896A8A6A2F
:10021000800E8B6E0F01010E386F396B3A973A9949
:100220003B6B3C6B560ED36ED70ED56ED76AD66A33
:10023000F294F28AF19CF292F288D08EF28CF28ED5
:10024000F1949F9A9F9859EC23F064EC22F06CECA7
:100250001DF045EC17F02BEC23F04AEC21F0FAEC02
:100260001EF00D0EE66E90EC1FF0E5520A0EE66EE3
:1002700090EC1FF0E552DAEF1FF00F01320E126F13
:100280001251006E016A0050011001E0F9D712000E
:1002900031EC09F0F2DFD7EC1DF00F01010E116F08
:1002A0001200D9CFE6FFE1CFD9FF020EE12651ECD3
:1002B00009F00F011951010B0E6E0F6A0E500F104D
:1002C0000BE11951020B01E0010E106E116A105082
:1002D000111002E1000E01D0010E0C6E0D6A0C50DF
:1002E0000D100BE11951040B01E0010E126E136A9F
:1002F0001250131002E1000E01D0010E0A6E0B6ABB
:100300000A500B100BE11951080B01E0010E146E9D
:10031000156A1450151002E1000E01D0010E086E8E
:10032000096A085009100BE11951100B01E0010E88
:10033000166E176A1650171002E1000E01D0010E5A
:10034000066E076A065007100BE11951200B01E0F9
:10035000010E186E196A1850191002E1000E01D032
:10036000010E046E056A045005100BE11951400B93
:1003700001E0010E1A6E1B6A1A501B1002E1000EFA
:1003800001D0010E026E036A025003100BE11951F5
:10039000800B01E0010E1C6E1D6A1C501D1002E155
:1003A000000E01D0010E006E016A0050011001E143
:1003B000B6D01951020B01E0010E006E016A005027
:1003C000011001E19FD0199365EC23F0F3CFDEFF1C
:1003D000F4CFDDFFDECFE6FFDDCFE6FF75EC09F001
:1003E000E552E5520F011951010B0E6E0F6A0E50C6
:1003F0000F100BE11951020B01E0010E106E116A92
:100400001050111002E1000E01D0010E0C6E0D6AA9
:100410000C500D100BE11951040B01E0010E126E8E
:10042000136A1250131002E1000E01D0010E0A6E81
:100430000B6A0A500B100BE11951080B01E0010E79
:10044000146E156A1450151002E1000E01D0010E51
:10045000086E096A085009100BE11951100B01E0F0
:10046000010E166E176A1650171002E1000E01D029
:10047000010E066E076A065007100BE11951200B9A
:1004800001E0010E186E196A1850191002E1000EF1
:1004900001D0010E046E056A045005100BE11951DC
:1004A000400B01E0010E1A6E1B6A1A501B1002E18C
:1004B000000E01D0010E026E036A025003100BE120
:1004C0001951800B01E0010E1C6E1D6A1C501D109D
:1004D00002E1000E01D0010E006E016A0050011011
:1004E00010E01951020B01E0010E006E016A00508C
:1004F000011007E019930F01010E116FD7EC1DF0E9
:100500000ED062D71951010B006E016A0050011024
:1005100006E019910F01020E116FD7EC1DF0020ECB
:10052000E15C02E2E16AE552E16EE552E7CFD9FF14
:100530001200D9CFE6FFE1CFD9FFE652C6EC0BF0AF
:100540000F011951010B0E6E0F6A0E500F100BE1C7
:100550001951020B01E0010E106E116A10501110BA
:1005600002E1000E01D0010E0C6E0D6A0C500D1050
:100570000BE11951040B01E0010E126E136A1250C7
:10058000131002E1000E01D0010E0A6E0B6A0A5030
:100590000B100BE11951080B01E0010E146E156AE6
:1005A0001450151002E1000E01D0010E086E096A08
:1005B000085009100BE11951100B01E0010E166EE5
:1005C000176A1650171002E1000E01D0010E066ED8
:1005D000076A065007100BE11951200B01E0010ECC
:1005E000186E196A1850191002E1000E01D0010EA0
:1005F000046E056A045005100BE11951400B01E02F
:10060000010E1A6E1B6A1A501B1002E1000E01D077
:10061000010E026E036A025003100BE11951800BA8
:1006200001E0010E1C6E1D6A1C501D1002E1000E3F
:1006300001D0010E006E016A0050011001E1ECD002
:100640001951020B01E0010E006E016A0050011009
:1006500001E1D7D01993D7EC1DF0010EDF6E0F0129
:100660001451E66EDF50E66E40EC23F0E552E552A1
:100670000F011451E66EEAEC0BF0E5520F0119512F
:10068000010B0E6E0F6A0E500F100BE11951020B89
:1006900001E0010E106E116A1050111002E1000EFF
:1006A00001D0010E0C6E0D6A0C500D100BE11951AA
:1006B000040B01E0010E126E136A1250131002E1D6
:1006C000000E01D0010E0A6E0B6A0A500B100BE1EE
:1006D0001951080B01E0010E146E156A1450151023
:1006E00002E1000E01D0010E086E096A08500910DF
:1006F0000BE11951100B01E0010E166E176A16502E
:10070000171002E1000E01D0010E066E076A0650B6
:1007100007100BE11951200B01E0010E186E196A48
:100720001850191002E1000E01D0010E046E056A86
:10073000045005100BE11951400B01E0010E1A6E37
:100740001B6A1A501B1002E1000E01D0010E026E4E
:10075000036A025003100BE11951800B01E0010EF6
:100760001C6E1D6A1C501D1002E1000E01D0010E0E
:10077000006E016A0050011043E01951020B01E0C4
:10078000010E006E016A0050011012E01993DF6A39
:100790000F011451E66EDF50E66E40EC23F0E55297
:1007A000E5520F01020E116FD7EC1DF035D028D0A5
:1007B0001951010B006E016A0050011021E01991DE
:1007C0000F011451006E016AD890015004E6FB0E2F
:1007D000005C000E015803E3050E146F11D0145194
:1007E000006E016A013404E200500408000E015456
:1007F00003E3050E146F04D0050E1427D7EC1DF08B
:100800002CD71951010B006E016A0050011004E051
:1008100019910F01030E116FE552E552E7CFD9FF91
:100820001200D9CFE6FFE1CFD9FF030EE126010E7A
:10083000DB6A020EDB6A6DEC12F00F011951010B3D
:100840000E6E0F6A0E500F100BE11951020B01E0F2
:10085000010E106E116A1050111002E1000E01D04D
:10086000010E0C6E0D6A0C500D100BE11951040BAA
:1008700001E0010E126E136A1250131002E1000E15
:1008800001D0010E0A6E0B6A0A500B100BE11951D0
:10089000080B01E0010E146E156A1450151002E1E8
:1008A000000E01D0010E086E096A085009100BE114
:1008B0001951100B01E0010E166E176A1650171031
:1008C00002E1000E01D0010E066E076A0650071005
:1008D0000BE11951200B01E0010E186E196A185036
:1008E000191002E1000E01D0010E046E056A0450D9
:1008F00005100BE11951400B01E0010E1A6E1B6A45
:100900001A501B1002E1000E01D0010E026E036AA4
:10091000025003100BE11951800B01E0010E1C6E17
:100920001D6A1C501D1002E1000E01D0010E006E68
:10093000016A0050011001E1D4D01951020B01E00D
:10094000010E006E016A0050011001E1BDD0199343
:10095000D7EC1DF0C8EC19F0DF6E010EDB50E66E2F
:10096000DF50E66E91EC12F0E552E5520F0119519D
:10097000010B0E6E0F6A0E500F100BE11951020B96
:1009800001E0010E106E116A1050111002E1000E0C
:1009900001D0010E0C6E0D6A0C500D100BE11951B7
:1009A000040B01E0010E126E136A1250131002E1E3
:1009B000000E01D0010E0A6E0B6A0A500B100BE1FB
:1009C0001951080B01E0010E146E156A1450151030
:1009D00002E1000E01D0010E086E096A08500910EC
:1009E0000BE11951100B01E0010E166E176A16503B
:1009F000171002E1000E01D0010E066E076A0650C4
:100A000007100BE11951200B01E0010E186E196A55
:100A10001850191002E1000E01D0010E046E056A93
:100A2000045005100BE11951400B01E0010E1A6E44
:100A30001B6A1A501B1002E1000E01D0010E026E5B
:100A4000036A025003100BE11951800B01E0010E03
:100A50001C6E1D6A1C501D1002E1000E01D0010E1B
:100A6000006E016A005001102EE01951020B01E0E6
:100A7000010E006E016A0050011007E019930F018A
:100A8000030E116FD7EC1DF02CD01951010B006E25
:100A9000016A0050011017E01991020EDB50006E40
:100AA000016A010E001801E1015006E1020EDB6A45
:100AB000DE52010EDD6E07D0010EF36E020EF3CF93
:100AC000DBFF010EDB6A46D71951010B006E016A8C
:100AD0000050011006E019910F01040E116FD7ECC0
:100AE0001DF0030EE15C02E2E16AE552E16EE552BF
:100AF000E7CFD9FF1200CDEC14F00F011951010B13
:100B00000E6E0F6A0E500F100BE11951020B01E02F
:100B1000010E106E116A1050111002E1000E01D08A
:100B2000010E0C6E0D6A0C500D100BE11951040BE7
:100B300001E0010E126E136A1250131002E1000E52
:100B400001D0010E0A6E0B6A0A500B100BE119510D
:100B5000080B01E0010E146E156A1450151002E125
:100B6000000E01D0010E086E096A085009100BE151
:100B70001951100B01E0010E166E176A165017106E
:100B800002E1000E01D0010E066E076A0650071042
:100B90000BE11951200B01E0010E186E196A185073
:100BA000191002E1000E01D0010E046E056A045016
:100BB00005100BE11951400B01E0010E1A6E1B6A82
:100BC0001A501B1002E1000E01D0010E026E036AE2
:100BD000025003100BE11951800B01E0010E1C6E55
:100BE0001D6A1C501D1002E1000E01D0010E006EA6
:100BF000016A0050011001E1B8D01951020B01E067
:100C0000010E006E016A0050011001E1A1D019939C
:100C1000D7EC1DF0F1EC14F00F011951010B0E6E21
:100C20000F6A0E500F100BE11951020B01E0010E7B
:100C3000106E116A1050111002E1000E01D0010E69
:100C40000C6E0D6A0C500D100BE11951040B01E0F4
:100C5000010E126E136A1250131002E1000E01D041
:100C6000010E0A6E0B6A0A500B100BE11951080BAA
:100C700001E0010E146E156A1450151002E1000E09
:100C800001D0010E086E096A085009100BE11951D4
:100C9000100B01E0010E166E176A1650171002E1D4
:100CA000000E01D0010E066E076A065007100BE118
:100CB0001951200B01E0010E186E196A1850191015
:100CC00002E1000E01D0010E046E056A0450051009
:100CD0000BE11951400B01E0010E1A6E1B6A1A500C
:100CE0001B1002E1000E01D0010E026E036A0250D9
:100CF00003100BE11951800B01E0010E1C6E1D6AFF
:100D00001C501D1002E1000E01D0010E006E016AA0
:100D1000005001101CE01951020B01E0010E006EA1
:100D2000016A0050011008E019930F01040E116FC1
:100D3000D7EC1DF01AD00BD01951010B006E016ACF
:100D40000050011004E0199111D8D7EC1DF062D7C2
:100D50001951010B006E016A0050011006E0199153
:100D60000F01010E116FD7EC1DF01200D9CFE6FF75
:100D7000E1CFD9FF030EE126DF6A010EDB6A020E26
:100D8000DB6AD7EC1DF0020EDB50006E016A0050EA
:100D9000011008E0020EDB6A030EE15C01E3B0D053
:100DA000ADD009D0010EDB50E66EDF50E66EE6EC0A
:100DB00015F0E552E5520F011951010B0E6E0F6A45
:100DC0000E500F100BE11951020B01E0010E106ED5
:100DD000116A1050111002E1000E01D0010E0C6ECC
:100DE0000D6A0C500D100BE11951040B01E0010EBE
:100DF000126E136A1250131002E1000E01D0010EA0
:100E00000A6E0B6A0A500B100BE11951080B01E036
:100E1000010E146E156A1450151002E1000E01D077
:100E2000010E086E096A085009100BE11951100BE8
:100E300001E0010E166E176A1650171002E1000E3F
:100E400001D0010E066E076A065007100BE119511A
:100E5000200B01E0010E186E196A1850191002E1FA
:100E6000000E01D0010E046E056A045005100BE15E
:100E70001951400B01E0010E1A6E1B6A1A501B102B
:100E800002E1000E01D0010E026E036A025003104F
:100E90000BE11951800B01E0010E1C6E1D6A1C5004
:100EA0001D1002E1000E01D0010E006E016A00501B
:100EB000011023E01951020B01E0010E006E016ADE
:100EC000005001100AE01993010EF36E020EF3CFE9
:100ED000DBFFD7EC1DF019D810D01951010B006EB3
:100EE000016A0050011009E01991010EF36E020E23
:100EF000F3CFDBFFD7EC1DF0DED845D7E16AE55232
:100F0000E16EE552E7CFD9FF1200D9CFE6FFE1CF7E
:100F1000D9FF020EE126010EDF6EDB6AD7EC1DF071
:100F2000010EDB50E66EDF50E66EE6EC15F0E552A2
:100F3000E5520F011951010B0E6E0F6A0E500F1082
:100F40000BE11951020B01E0010E106E116A1050F5
:100F5000111002E1000E01D0010E0C6E0D6A0C5052
:100F60000D100BE11951040B01E0010E126E136A12
:100F70001250131002E1000E01D0010E0A6E0B6A2E
:100F80000A500B100BE11951080B01E0010E146E11
:100F9000156A1450151002E1000E01D0010E086E02
:100FA000096A085009100BE11951100B01E0010EFC
:100FB000166E176A1650171002E1000E01D0010ECE
:100FC000066E076A065007100BE11951200B01E06D
:100FD000010E186E196A1850191002E1000E01D0A6
:100FE000010E046E056A045005100BE11951400B07
:100FF00001E0010E1A6E1B6A1A501B1002E1000E6E
:1010000001D0010E026E036A025003100BE1195168
:10101000800B01E0010E1C6E1D6A1C501D1002E1C8
:10102000000E01D0010E006E016A005001103BE07D
:101030001951020B01E0010E006E016A005001100F
:1010400015E01993010EDB2ADB50006E016A020ED7
:10105000001801E1015009E10F01040E116FD7ECF6
:101060001DF0020EE15C22E21FD01DD01951010BD0
:10107000006E016A0050011016E01991010EDB505C
:10108000006E016A0050011003E191EC22F00BD0D8
:10109000010EDB50006E016A010E001801E10150E3
:1010A00002E1A8EC22F03CD7E16AE552E16EE5529C
:1010B000E7CFD9FF1200D9CFE6FFE1CFD9FF020E6B
:1010C000E126DF6E010EDB6AD7EC1DF0010EDB506E
:1010D000E66EDF50E66EE6EC15F0E552E5520F01E4
:1010E0001951010B0E6E0F6A0E500F100BE11951C2
:1010F000020B01E0010E106E116A1050111002E196
:10110000000E01D0010E0C6E0D6A0C500D100BE19B
:101110001951040B01E0010E126E136A12501310E4
:1011200002E1000E01D0010E0A6E0B6A0A500B108C
:101130000BE11951080B01E0010E146E156A1450F1
:10114000151002E1000E01D0010E086E096A085068
:1011500009100BE11951100B01E0010E166E176A10
:101160001650171002E1000E01D0010E066E076A3C
:10117000065007100BE11951200B01E0010E186E0B
:10118000196A1850191002E1000E01D0010E046E08
:10119000056A045005100BE11951400B01E0010EE6
:1011A0001A6E1B6A1A501B1002E1000E01D0010ECC
:1011B000026E036A025003100BE11951800B01E02B
:1011C000010E1C6E1D6A1C501D1002E1000E01D0A4
:1011D000010E006E016A005001103BE01951020B34
:1011E00001E0010E006E016A0050011015E0199334
:1011F000010EDB2ADB50006E016A020E001801E1CD
:10120000015009E10F01040E116FD7EC1DF0020E21
:10121000E15C22E21FD01DD01951010B006E016A62
:101220000050011016E01991010EDB50006E016AAA
:101230000050011003E1C1EC22F00BD0010EDB5095
:10124000006E016A010E001801E1015002E1CEECCE
:1012500022F03CD7E16AE552E16EE552E7CFD9FFD3
:101260001200D7EC1DF0540EE66E420EE66E000E34
:10127000E66E6CEC1EF0E552E552E552010EE66EAC
:10128000E66ADFEC1DF0E552E552450EE66E420ED1
:10129000E66E000EE66E6CEC1EF0E552E552E5528D
:1012A0001200E66AE66ADFEC1DF0E552E552380E00
:1012B000E66E420EE66E000EE66E6CEC1EF0E55237
:1012C000E552E552010EE66EE66ADFEC1DF0E552EE
:1012D000E552270EE66E420EE66E000EE66E6CECF0
:1012E0001EF0E552E552E5521200D9CFE6FFE1CFFC
:1012F000D9FF020EE126FD0EDBCFDEFFDBCFDDFFE7
:10130000DBCF00F0FE0EDBCF01F0310E0102F3CF98
:1013100001F00002F3CF00F0F45001260A0E356E02
:10132000366A00C030F001C031F0AAEC23F030C0C2
:1013300000F031C001F00A0E356E366A00C030F0A0
:1013400001C031F0AAEC23F030C000F031C001F050
:10135000FD0E00C0DBFFFE0E01C0DBFFE66AE66AA1
:10136000DFEC1DF0E552E5521E0EE66E420EE66E13
:10137000000EE66E6CEC1EF0E552E552E552FD0EF5
:10138000DBCF00F0FE0EDBCF01F0640E356E366A67
:1013900000C030F001C031F0AAEC23F030C000F002
:1013A00031C001F0300E0024E66E28EC1EF0E5524C
:1013B0002E0EE66E28EC1EF0E552FD0EDBCF00F09F
:1013C000FE0EDBCF01F00A0E356E366A00C030F03B
:1013D00001C031F0AAEC23F030C000F031C001F0C0
:1013E0000A0E356E366A00C030F001C031F0AAEC4A
:1013F00023F02CC000F02DC001F0300E0024E66E6A
:1014000028EC1EF0E552FD0EDBCF00F0FE0EDBCF28
:1014100001F00A0E356E366A00C030F001C031F0BE
:10142000AAEC23F02CC000F02DC001F0300E0024F7
:10143000E66E28EC1EF0E552180EE66E420EE66EE1
:10144000000EE66E6CEC1EF0E552E552E552010E20
:10145000E66EE66ADFEC1DF0E552E5525B0EE66EE5
:1014600028EC1EF0E552DECF00F0DDCF01F0E80EF3
:10147000356E030E366E00C030F001C031F0AAECBC
:1014800023F030C000F031C001F0300E0024E66ED1
:1014900028EC1EF0E552DECF00F0DDCF01F0640E47
:1014A000356E366A00C030F001C031F0AAEC23F08E
:1014B00030C000F031C001F00A0E356E366A00C04F
:1014C00030F001C031F0AAEC23F02CC000F02DC0A8
:1014D00001F0300E0024E66E28EC1EF0E552DECF5F
:1014E00000F0DDCF01F00A0E356E366A00C030F034
:1014F00001C031F0AAEC23F030C000F031C001F09F
:101500000A0E356E366A00C030F001C031F0AAEC28
:1015100023F02CC000F02DC001F0300E0024E66E48
:1015200028EC1EF0E552DECF00F0DDCF01F00A0E10
:10153000356E366A00C030F001C031F0AAEC23F0FD
:101540002CC000F02DC001F0300E0024E66E28EC17
:101550001EF0E5520C0EE66E420EE66E000EE66ED2
:101560006CEC1EF0E552E552E5520F011551006E8C
:10157000016A0050011001E1FFD0156B0D0EE66EFF
:1015800090EC1FF0E5520A0EE66E90EC1FF0E5526B
:101590001E0EE66E420EE66E000EE66EEDEC1FF0DD
:1015A000E552E552E552FD0EDBCF00F0FE0EDBCF3B
:1015B00001F0640E356E366A00C030F001C031F0C3
:1015C000AAEC23F030C000F031C001F0300E00244E
:1015D000E66E90EC1FF0E5522E0EE66E90EC1FF0DA
:1015E000E552FD0EDBCF00F0FE0EDBCF01F00A0E60
:1015F000356E366A00C030F001C031F0AAEC23F03D
:1016000030C000F031C001F00A0E356E366A00C0FD
:1016100030F001C031F0AAEC23F02CC000F02DC056
:1016200001F0300E0024E66E90EC1FF0E552FD0E46
:10163000DBCF00F0FE0EDBCF01F00A0E356E366A0E
:1016400000C030F001C031F0AAEC23F02CC000F053
:101650002DC001F0300E0024E66E90EC1FF0E55234
:10166000FB0EE66E410EE66E000EE66EEDEC1FF030
:10167000E552E552E5525B0EE66E90EC1FF0E55246
:10168000DECF00F0DDCF01F0E80E356E030E366ED2
:1016900000C030F001C031F0AAEC23F030C000F0FF
:1016A00031C001F0300E0024E66E90EC1FF0E552E0
:1016B000DECF00F0DDCF01F0640E356E366A00C07B
:1016C00030F001C031F0AAEC23F030C000F031C09E
:1016D00001F00A0E356E366A00C030F001C031F0FC
:1016E000AAEC23F02CC000F02DC001F0300E002435
:1016F000E66E90EC1FF0E552DECF00F0DDCF01F09A
:101700000A0E356E366A00C030F001C031F0AAEC26
:1017100023F030C000F031C001F00A0E356E366A99
:1017200000C030F001C031F0AAEC23F02CC000F072
:101730002DC001F0300E0024E66E90EC1FF0E55253
:10174000DECF00F0DDCF01F00A0E356E366A00C044
:1017500030F001C031F0AAEC23F02CC000F02DC015
:1017600001F0300E0024E66E90EC1FF0E5525D0EA5
:10177000E66E90EC1FF0E552020EE15C02E2E16AD7
:10178000E552E16EE552E7CFD9FF1200E66AE66A5C
:10179000DFEC1DF0E552E552EF0EE66E410EE66E0F
:1017A000000EE66E6CEC1EF0E552E552E552010EBD
:1017B000E66EE66ADFEC1DF0E552E552270EE66EB6
:1017C000420EE66E000EE66E6CEC1EF0E552E5523F
:1017D000E5521200D9CFE6FFE1CFD9FFE66AE66A0B
:1017E000DFEC1DF0E552E552EA0EE66E410EE66EC4
:1017F000000EE66E6CEC1EF0E552E552E552FE0E70
:10180000DB50006E016A050E356E366A00C030F09E
:1018100001C031F084EC23F030C000F031C001F0A1
:101820000006000E015AD89000360136640E356E5F
:10183000366A00C030F001C031F084EC23F030C0D3
:1018400000F031C001F0300E0024E66E28EC1EF0EE
:10185000E552FE0EDB50006E016A050E356E366AEB
:1018600000C030F001C031F084EC23F030C000F053
:1018700031C001F00006000E015AD8900036013642
:101880000A0E356E366A00C030F001C031F084ECCB
:1018900023F030C000F031C001F00A0E356E366A18
:1018A00000C030F001C031F084EC23F02CC000F017
:1018B0002DC001F0300E0024E66E28EC1EF0E5523B
:1018C000FE0EDB50006E016A050E356E366A00C0F2
:1018D00030F001C031F084EC23F030C000F031C0B2
:1018E00001F00006000E015AD890003601360A0EAB
:1018F000356E366A00C030F001C031F084EC23F060
:101900002CC000F02DC001F0300E0024E66E28EC53
:101910001EF0E552250EE66E28EC1EF0E552E40EB0
:10192000E66E410EE66E000EE66E6CEC1EF0E552C1
:10193000E552E552FE0EDB50006E016AE8680018C1
:1019400001E1015001E169D2F00E001801E10150FE
:1019500001E157D2DC0E001801E1015001E145D24E
:10196000D20E001801E1015001E133D2C80E001877
:1019700001E1015001E121D2BE0E001801E1015048
:1019800001E10FD2B40E001801E1015001E1FDD1D7
:10199000AA0E001801E1015001E1EBD1A00E0018E0
:1019A00001E1015001E1D9D1960E001801E1015089
:1019B00001E1C7D18C0E001801E1015001E1B5D160
:1019C000870E001801E1015001E1A3D17D0E00183E
:1019D00001E1015001E191D1730E001801E10150C4
:1019E00001E17FD16E0E001801E1015001E16DD1DE
:1019F000690E001801E1015001E15BD1640E00188D
:101A000001E1015001E149D15F0E001801E10150EF
:101A100001E137D15A0E001801E1015001E125D151
:101A2000550E001801E1015001E113D1500E0018CC
:101A300001E1015001E101D14B0E001801E101501B
:101A400001E1EFD0460E001801E1015001E1DDD0C7
:101A5000410E001801E1015001E1CBD03C0E00180D
:101A600001E1015001E1B9D0370E001801E1015048
:101A700001E1A7D0320E001801E1015001E195D03B
:101A80002D0E001801E1015001E183D0280E00184D
:101A900001E1015072E0230E001801E1015061E004
:101AA0001E0E001801E1015050E0190E001801E16E
:101AB00001503FE0140E001801E101502EE00F0E1E
:101AC000001801E101501DE00A0E001801E101506B
:101AD0000CE0550EE66E410EE66E000EE66E6CEC06
:101AE0001EF0E552E552E552A4D1E00EE66E410E3D
:101AF000E66E000EE66E6CEC1EF0E552E552E55225
:101B000098D1DC0EE66E410EE66E000EE66E6CECD1
:101B10001EF0E552E552E5528CD1D80EE66E410E2C
:101B2000E66E000EE66E6CEC1EF0E552E552E552F4
:101B300080D1D40EE66E410EE66E000EE66E6CECC1
:101B40001EF0E552E552E55274D1D00EE66E410E1C
:101B5000E66E000EE66E6CEC1EF0E552E552E552C4
:101B600068D1CC0EE66E410EE66E000EE66E6CECB1
:101B70001EF0E552E552E5525CD1C80EE66E410E0C
:101B8000E66E000EE66E6CEC1EF0E552E552E55294
:101B900050D1C40EE66E410EE66E000EE66E6CECA1
:101BA0001EF0E552E552E55244D1C00EE66E410EFC
:101BB000E66E000EE66E6CEC1EF0E552E552E55264
:101BC00038D1BC0EE66E410EE66E000EE66E6CEC91
:101BD0001EF0E552E552E5522CD1B90EE66E410EEB
:101BE000E66E000EE66E6CEC1EF0E552E552E55234
:101BF00020D1B50EE66E410EE66E000EE66E6CEC80
:101C00001EF0E552E552E55214D1B10EE66E410EDA
:101C1000E66E000EE66E6CEC1EF0E552E552E55203
:101C200008D1AD0EE66E410EE66E000EE66E6CEC6F
:101C30001EF0E552E552E552FCD0A90EE66E410ECB
:101C4000E66E000EE66E6CEC1EF0E552E552E552D3
:101C5000F0D0A50EE66E410EE66E000EE66E6CEC60
:101C60001EF0E552E552E552E4D0A10EE66E410EBB
:101C7000E66E000EE66E6CEC1EF0E552E552E552A3
:101C8000D8D09D0EE66E410EE66E000EE66E6CEC50
:101C90001EF0E552E552E552CCD0990EE66E410EAB
:101CA000E66E000EE66E6CEC1EF0E552E552E55273
:101CB000C0D0950EE66E410EE66E000EE66E6CEC40
:101CC0001EF0E552E552E552B4D0910EE66E410E9B
:101CD000E66E000EE66E6CEC1EF0E552E552E55243
:101CE000A8D08D0EE66E410EE66E000EE66E6CEC30
:101CF0001EF0E552E552E5529CD0890EE66E410E8B
:101D0000E66E000EE66E6CEC1EF0E552E552E55212
:101D100090D0850EE66E410EE66E000EE66E6CEC1F
:101D20001EF0E552E552E55284D0810EE66E410E7A
:101D3000E66E000EE66E6CEC1EF0E552E552E552E2
:101D400078D07D0EE66E410EE66E000EE66E6CEC0F
:101D50001EF0E552E552E5526CD0790EE66E410E6A
:101D6000E66E000EE66E6CEC1EF0E552E552E552B2
:101D700060D0750EE66E410EE66E000EE66E6CECFF
:101D80001EF0E552E552E55254D0710EE66E410E5A
:101D9000E66E000EE66E6CEC1EF0E552E552E55282
:101DA00048D06D0EE66E410EE66E000EE66E6CECEF
:101DB0001EF0E552E552E5523CD0690EE66E410E4A
:101DC000E66E000EE66E6CEC1EF0E552E552E55252
:101DD00030D0650EE66E410EE66E000EE66E6CECDF
:101DE0001EF0E552E552E55224D0610EE66E410E3A
:101DF000E66E000EE66E6CEC1EF0E552E552E55222
:101E000018D05D0EE66E410EE66E000EE66E6CECCE
:101E10001EF0E552E552E5520CD0590EE66E410E29
:101E2000E66E000EE66E6CEC1EF0E552E552E552F1
:101E300000D0010EE66EE66ADFEC1DF0E552E552D9
:101E4000440EE66E410EE66E000EE66E6CEC1EF081
:101E5000E552E552E5520F011551006E016A00503E
:101E6000011001E136D3156B0D0EE66E90EC1FF0FC
:101E7000E5520A0EE66E90EC1FF0E5523E0EE66E5D
:101E8000410EE66E000EE66EEDEC1FF0E552E552F7
:101E9000E552FE0EDB50006E016A050E356E366AA5
:101EA00000C030F001C031F084EC23F030C000F00D
:101EB00031C001F00006000E015AD89000360136FC
:101EC000640E356E366A00C030F001C031F084EC2B
:101ED00023F030C000F031C001F0300E0024E66E77
:101EE00090EC1FF0E552FE0EDB50006E016A050E0D
:101EF000356E366A00C030F001C031F084EC23F05A
:101F000030C000F031C001F00006000E015AD89038
:101F1000003601360A0E356E366A00C030F001C058
:101F200031F084EC23F030C000F031C001F00A0E33
:101F3000356E366A00C030F001C031F084EC23F019
:101F40002CC000F02DC001F0300E0024E66E90ECA5
:101F50001FF0E552FE0EDB50006E016A050E356E75
:101F6000366A00C030F001C031F084EC23F030C09C
:101F700000F031C001F00006000E015AD890003682
:101F800001360A0E356E366A00C030F001C031F0FD
:101F900084EC23F02CC000F02DC001F0300E0024A2
:101FA000E66E90EC1FF0E5523C0EE66E410EE66EDA
:101FB000000EE66EEDEC1FF0E552E552E5522D0EF7
:101FC000E66E410EE66E000EE66EEDEC1FF0E55299
:101FD000E552E552FE0EDB50006E016AE86800181B
:101FE00001E1015001E169D2F00E001801E1015058
:101FF00001E157D2DC0E001801E1015001E145D2A8
:10200000D20E001801E1015001E133D2C80E0018D0
:1020100001E1015001E121D2BE0E001801E10150A1
:1020200001E10FD2B40E001801E1015001E1FDD130
:10203000AA0E001801E1015001E1EBD1A00E001839
:1020400001E1015001E1D9D1960E001801E10150E2
:1020500001E1C7D18C0E001801E1015001E1B5D1B9
:10206000870E001801E1015001E1A3D17D0E001897
:1020700001E1015001E191D1730E001801E101501D
:1020800001E17FD16E0E001801E1015001E16DD137
:10209000690E001801E1015001E15BD1640E0018E6
:1020A00001E1015001E149D15F0E001801E1015049
:1020B00001E137D15A0E001801E1015001E125D1AB
:1020C000550E001801E1015001E113D1500E001826
:1020D00001E1015001E101D14B0E001801E1015075
:1020E00001E1EFD0460E001801E1015001E1DDD021
:1020F000410E001801E1015001E1CBD03C0E001867
:1021000001E1015001E1B9D0370E001801E10150A1
:1021100001E1A7D0320E001801E1015001E195D094
:102120002D0E001801E1015001E183D0280E0018A6
:1021300001E1015072E0230E001801E1015061E05D
:102140001E0E001801E1015050E0190E001801E1C7
:1021500001503FE0140E001801E101502EE00F0E77
:10216000001801E101501DE00A0E001801E10150C4
:102170000CE0550EE66E410EE66E000EE66EEDECDE
:102180001FF0E552E552E552A4D1E00EE66E410E95
:10219000E66E000EE66EEDEC1FF0E552E552E552FC
:1021A00098D1DC0EE66E410EE66E000EE66EEDECAA
:1021B0001FF0E552E552E5528CD1D80EE66E410E85
:1021C000E66E000EE66EEDEC1FF0E552E552E552CC
:1021D00080D1D40EE66E410EE66E000EE66EEDEC9A
:1021E0001FF0E552E552E55274D1D00EE66E410E75
:1021F000E66E000EE66EEDEC1FF0E552E552E5529C
:1022000068D1CC0EE66E410EE66E000EE66EEDEC89
:102210001FF0E552E552E5525CD1C80EE66E410E64
:10222000E66E000EE66EEDEC1FF0E552E552E5526B
:1022300050D1C40EE66E410EE66E000EE66EEDEC79
:102240001FF0E552E552E55244D1C00EE66E410E54
:10225000E66E000EE66EEDEC1FF0E552E552E5523B
:1022600038D1BC0EE66E410EE66E000EE66EEDEC69
:102270001FF0E552E552E5522CD1B90EE66E410E43
:10228000E66E000EE66EEDEC1FF0E552E552E5520B
:1022900020D1B50EE66E410EE66E000EE66EEDEC58
:1022A0001FF0E552E552E55214D1B10EE66E410E33
:1022B000E66E000EE66EEDEC1FF0E552E552E552DB
:1022C00008D1AD0EE66E410EE66E000EE66EEDEC48
:1022D0001FF0E552E552E552FCD0A90EE66E410E24
:1022E000E66E000EE66EEDEC1FF0E552E552E552AB
:1022F000F0D0A50EE66E410EE66E000EE66EEDEC39
:102300001FF0E552E552E552E4D0A10EE66E410E13
:10231000E66E000EE66EEDEC1FF0E552E552E5527A
:10232000D8D09D0EE66E410EE66E000EE66EEDEC28
:102330001FF0E552E552E552CCD0990EE66E410E03
:10234000E66E000EE66EEDEC1FF0E552E552E5524A
:10235000C0D0950EE66E410EE66E000EE66EEDEC18
:102360001FF0E552E552E552B4D0910EE66E410EF3
:10237000E66E000EE66EEDEC1FF0E552E552E5521A
:10238000A8D08D0EE66E410EE66E000EE66EEDEC08
:102390001FF0E552E552E5529CD0890EE66E410EE3
:1023A000E66E000EE66EEDEC1FF0E552E552E552EA
:1023B00090D0850EE66E410EE66E000EE66EEDECF8
:1023C0001FF0E552E552E55284D0810EE66E410ED3
:1023D000E66E000EE66EEDEC1FF0E552E552E552BA
:1023E00078D07D0EE66E410EE66E000EE66EEDECE8
:1023F0001FF0E552E552E5526CD0790EE66E410EC3
:10240000E66E000EE66EEDEC1FF0E552E552E55289
:1024100060D0750EE66E410EE66E000EE66EEDECD7
:102420001FF0E552E552E55254D0710EE66E410EB2
:10243000E66E000EE66EEDEC1FF0E552E552E55259
:1024400048D06D0EE66E410EE66E000EE66EEDECC7
:102450001FF0E552E552E5523CD0690EE66E410EA2
:10246000E66E000EE66EEDEC1FF0E552E552E55229
:1024700030D0650EE66E410EE66E000EE66EEDECB7
:102480001FF0E552E552E55224D0610EE66E410E92
:10249000E66E000EE66EEDEC1FF0E552E552E552F9
:1024A00018D05D0EE66E410EE66E000EE66EEDECA7
:1024B0001FF0E552E552E5520CD0590EE66E410E82
:1024C000E66E000EE66EEDEC1FF0E552E552E552C9
:1024D00000D0E552E7CFD9FF1200E66AE66ADFECEA
:1024E0001DF0E552E5521F0EE66E410EE66E000E3F
:1024F000E66E6CEC1EF0E552E552E552010EE66E1A
:10250000E66ADFEC1DF0E552E552270EE66E420E5C
:10251000E66E000EE66E6CEC1EF0E552E552E552FA
:102520001200D9CFE6FFE1CFD9FFE652FE0EDB5015
:10253000006E016AD890015004E6800E005C000E27
:1025400001580FE3FE0EDB50006E016A000ED880CA
:102550000056010E0156FE0E00C0DBFF010EDF6EBD
:1025600007D0FE0EDB50E76EFE0EE7CFDBFFDF6A23
:10257000FD0EDB50006E016A010E001801E10150F2
:1025800001E077D0DF50006E016A005001101CE1BD
:10259000FE0EDB50090DF3CF00F0F4CF01F0050E75
:1025A000356E366A00C030F001C031F084EC23F0A3
:1025B00030C000F031C001F0200E0026000E0122D4
:1025C000FE0E00C0DBFF55D0DF50006E016A010E29
:1025D000001801E101504DE1FE0EDB50006E016A72
:1025E000D890015004E6120E005C000E015824E25F
:1025F000FE0EDB50090DF3CF00F0F4CF01F0050E15
:10260000356E366A00C030F001C031F084EC23F042
:1026100030C000F031C001F0FE0E00C0DBFFDB5027
:10262000006E016A200ED8800056000E0156FE0E84
:1026300000C0DBFFDF6A1DD0FE0EDB50090DF3CFBB
:1026400000F0F4CF01F0050E356E366A00C030F0B0
:1026500001C031F084EC23F030C000F031C001F053
:10266000200E005E000E015AFE0E00C0DBFF010EC0
:10267000DF6EE66AE66ADFEC1DF0E552E552170E02
:10268000E66E410EE66E000EE66E6CEC1EF0E55254
:10269000E552E552DF50006E016A010E001801E1BB
:1026A000015006E12D0EE66E28EC1EF0E55231D009
:1026B000FE0EDB50006E016A640E356E366A00C095
:1026C00030F001C031F084EC23F030C000F031C0B4
:1026D00001F00050011006E1200EE66E28EC1EF01D
:1026E000E55217D0FE0EDB50006E016A640E356EA7
:1026F000366A00C030F001C031F084EC23F030C005
:1027000000F031C001F0300E0024E66E28EC1EF01F
:10271000E552FE0EDB50006E016A0A0E356E366A17
:1027200000C030F001C031F084EC23F030C000F084
:1027300031C001F0300E0024E66E28EC1EF0E552A8
:10274000FE0EDB50006E016A0A0E356E366A00C05E
:1027500030F001C031F084EC23F02CC000F02DC02B
:1027600001F0300E0024E66E28EC1EF0E552DF0E7C
:10277000E66E28EC1EF0E552FD0EDB50006E016A9D
:10278000010E001801E101500CE1100EE66E410E41
:10279000E66E000EE66E6CEC1EF0E552E552E55278
:1027A00012D0FD0EDB50006E016A005001100BE1EB
:1027B000090EE66E410EE66E000EE66E6CEC1EF043
:1027C000E552E552E552010EE66EE66ADFEC1DF0D9
:1027D000E552E552FD0EDB50006E016A010E001855
:1027E00001E101500CE1F80EE66E400EE66E000EBF
:1027F000E66E6CEC1EF0E552E552E55212D0FD0E8D
:10280000DB50006E016A005001100BE1E70EE66E2E
:10281000400EE66E000EE66E6CEC1EF0E552E552E0
:10282000E5520F011551006E016A0050011001E1DF
:10283000AFD0156B0A0EE66E90EC1FF0E5520D0E50
:10284000E66E90EC1FF0E552170EE66E410EE66E56
:10285000000EE66EEDEC1FF0E552E552E552DF505A
:10286000006E016A010E001801E1015006E12D0E13
:10287000E66E90EC1FF0E55231D0FE0EDB50006E9C
:10288000016A640E356E366A00C030F001C031F066
:1028900084EC23F030C000F031C001F00050011092
:1028A00006E1200EE66E90EC1FF0E55217D0FE0E0A
:1028B000DB50006E016A640E356E366A00C030F07F
:1028C00001C031F084EC23F030C000F031C001F0E1
:1028D000300E0024E66E90EC1FF0E552FE0EDB5049
:1028E000006E016A0A0E356E366A00C030F001C013
:1028F00031F084EC23F030C000F031C001F0300E34
:102900000024E66E90EC1FF0E552FE0EDB50006EE8
:10291000016A0A0E356E366A00C030F001C031F02F
:1029200084EC23F02CC000F02DC001F0300E002408
:10293000E66E90EC1FF0E552F80EE66E90EC1FF09C
:10294000E552FD0EDB50006E016A010E001801E138
:1029500001500CE1100EE66E410EE66E000EE66EC2
:10296000EDEC1FF0E552E552E55212D0FD0EDB50C2
:10297000006E016A005001100BE1090EE66E410E77
:10298000E66E000EE66EEDEC1FF0E552E552E55204
:10299000E552E552E7CFD9FF1200E66AE66ADFECBE
:1029A0001DF0E552E552DC0EE66E400EE66E000EBE
:1029B000E66E6CEC1EF0E552E552E552010EE66E55
:1029C000E66ADFEC1DF0E552E552270EE66E420E98
:1029D000E66E000EE66E6CEC1EF0E552E552E55236
:1029E0001200E66AE66ADFEC1DF0E552E552D50E0C
:1029F000E66E400EE66E000EE66E6CEC1EF0E552E2
:102A0000E552E5520F010C51E66E38EC1EF0E5522E
:102A10003A0EE66E28EC1EF0E5520F010B51E66E01
:102A200038EC1EF0E5523A0EE66E28EC1EF0E55248
:102A30000F010A51E66E38EC1EF0E552010EE66E0B
:102A4000E66ADFEC1DF0E552E552C40EE66E400E7C
:102A5000E66E000EE66E6CEC1EF0E552E552E552B5
:102A60000F011F51006E016A010E001801E10150B3
:102A700001E0ABD00D0EE66E90EC1FF0E5520A0EB1
:102A8000E66E90EC1FF0E552B50EE66E400EE66E77
:102A9000000EE66EEDEC1FF0E552E552E5520F0137
:102AA0000C51006E016A0A0E356E366A00C030F0B5
:102AB00001C031F084EC23F030C000F031C001F0EF
:102AC000300E0024E66E90EC1FF0E5520F010C5121
:102AD000006E016A0A0E356E366A00C030F001C021
:102AE00031F084EC23F02CC000F02DC001F0300E4A
:102AF0000024E66E90EC1FF0E5523A0EE66E90EC84
:102B00001FF0E5520F010B51006E016A0A0E356E7F
:102B1000366A00C030F001C031F084EC23F030C0E0
:102B200000F031C001F0300E0024E66E90EC1FF092
:102B3000E5520F010B51006E016A0A0E356E366ABE
:102B400000C030F001C031F084EC23F02CC000F064
:102B50002DC001F0300E0024E66E90EC1FF0E5521F
:102B60003A0EE66E90EC1FF0E5520F010A51006E2E
:102B7000016A0A0E356E366A00C030F001C031F0CD
:102B800084EC23F030C000F031C001F0300E00249E
:102B9000E66E90EC1FF0E5520F010A51006E016ADB
:102BA0000A0E356E366A00C030F001C031F084EC98
:102BB00023F02CC000F02DC001F0300E0024E66E92
:102BC00090EC1FF0E5520F011F6B1200D9CFE6FF0A
:102BD000E1CFD9FFFE0EDB50006E016A00500110FC
:102BE00040E1E66AE66ADFEC1DF0E552E552AC0E24
:102BF000E66E400EE66E000EE66E6CEC1EF0E552E0
:102C0000E552E5520F010C51E66E38EC1EF0E5522C
:102C10003A0EE66E28EC1EF0E5520F010B51E66EFF
:102C200038EC1EF0E5523A0EE66E28EC1EF0E55246
:102C30000F010A51E66E38EC1EF0E552010EE66E09
:102C4000E66ADFEC1DF0E552E5529C0EE66E400EA2
:102C5000E66E000EE66E6CEC1EF0E552E552E552B3
:102C6000F1D0FE0EDB50006E016A010E001801E18A
:102C7000015070E1E66AE66ADFEC1DF0E552E552CC
:102C80000F010C51E66E38EC1EF0E5523A0EE66E7E
:102C900028EC1EF0E5520F010B51E66E38EC1EF0E9
:102CA000E5523A0EE66E28EC1EF0E5520F010A518D
:102CB000E66E38EC1EF0E552930EE66E400EE66EC0
:102CC000000EE66E6CEC1EF0E552E552E552010E88
:102CD000E66EE66ADFEC1DF0E552E5528F0EE66E19
:102CE000400EE66E000EE66E6CEC1EF0E552E5520C
:102CF000E552FD0EDB50006E016A005001100BE141
:102D00002B0EE66E28EC1EF0E5522B0EE66E28EC3C
:102D10001EF0E55213D0FD0EDB50006E016A010E6D
:102D2000001801E101500AE12D0EE66E28EC1EF0BC
:102D3000E5522D0EE66E28EC1EF0E552830EE66E8F
:102D4000400EE66E000EE66E6CEC1EF0E552E552AB
:102D5000E55278D0FE0EDB50006E016A020E0018BC
:102D600001E101506FE1E66AE66ADFEC1DF0E55231
:102D7000E5520F010C51E66E38EC1EF0E5523A0EAA
:102D8000E66E28EC1EF0E5520F010B51E66E38ECB2
:102D90001EF0E5523A0EE66E28EC1EF0E5520F01E9
:102DA0000A51E66E38EC1EF0E5527A0EE66E400EE1
:102DB000E66E000EE66E6CEC1EF0E552E552E55252
:102DC000010EE66EE66ADFEC1DF0E552E5528F0E6D
:102DD000E66E400EE66E000EE66E6CEC1EF0E552FE
:102DE000E552E552FD0EDB50006E016A0050011005
:102DF0000BE12B0EE66E28EC1EF0E5522B0EE66E74
:102E000028EC1EF0E55213D0FD0EDB50006E016A77
:102E1000010E001801E101500AE12D0EE66E28ECCA
:102E20001EF0E5522D0EE66E28EC1EF0E552830EE4
:102E3000E66E400EE66E000EE66E6CEC1EF0E5529D
:0C2E4000E552E552E552E7CFD9FF120041
:042E4C000500160067
:102E500000001C0F000002000000140000001A0F08
:102E6000000002000000130000001F0F000001001E
:102E70000000120000001E0F0000010000000E0004
:0A2E80000000110F00000400000024
:062E8A00D9CFE6FFE1CF05
:102E9000D9FF020EE126DE6ADD6A280EC66E00004A
:102EA000C78ECB8ACB8C9E96090EC86E00000000A0
:102EB00000002FD9000000000000010EC96E9E9690
:102EC000DE6ADD6AD9CFE9FFDACFEAFF880EEE18B5
:102ED00002E1130EED1824E1E66AE66ADFEC1DF06C
:102EE000E552E552830EE66E420EE66E000EE66E89
:102EF0006CEC1EF0E552E552E552010EE66EE66A14
:102F0000DFEC1DF0E552E552720EE66E420EE66E03
:102F1000000EE66E6CEC1EF0E552E552E552DCD791
:102F2000DF2A010E01E3DB2A9E50080B01E0010EAF
:102F3000006E016A00500110C5E0C550400B01E071
:102F4000010E006E016A0050011024E0E66AE66A94
:102F5000DFEC1DF0E552E552830EE66E420EE66EA2
:102F6000000EE66E6CEC1EF0E552E552E552010EE5
:102F7000E66EE66ADFEC1DF0E552E552610EE66EA4
:102F8000420EE66E000EE66E6CEC1EF0E552E55267
:102F9000E552DCD7000000000000010EC96E9E96CD
:102FA000DE6ADD6AD9CFE9FFDACFEAFF880EEE18D4
:102FB00002E1130EED1824E1E66AE66ADFEC1DF08B
:102FC000E552E552830EE66E420EE66E000EE66EA8
:102FD0006CEC1EF0E552E552E552010EE66EE66A33
:102FE000DFEC1DF0E552E552720EE66E420EE66E23
:102FF000000EE66E6CEC1EF0E552E552E552DCD7B1
:10300000DF2A010E01E3DB2A9E50080B01E0010ECE
:10301000006E016A00500110C5E0C550400B01E090
:10302000010E006E016A0050011024E0E66AE66AB3
:10303000DFEC1DF0E552E552830EE66E420EE66EC1
:10304000000EE66E6CEC1EF0E552E552E552010E04
:10305000E66EE66ADFEC1DF0E552E552610EE66EC3
:10306000420EE66E000EE66E6CEC1EF0E552E55286
:10307000E552DCD70000000000009E96C584D9CF41
:10308000E9FFDACFEAFF880EEE1802E1130EED1821
:1030900024E1E66AE66ADFEC1DF0E552E552830EB4
:1030A000E66E420EE66E000EE66E6CEC1EF0E55229
:1030B000E552E552010EE66EE66ADFEC1DF0E552E0
:1030C000E552720EE66E420EE66E000EE66E6CEC97
:1030D0001EF0E552E552E552DCD7DF2A010E01E38E
:1030E000DB2A9E50080B01E0010E006E016A0050C1
:1030F0000110C5E0DE6ADD6A000000000000020E7B
:10310000E15C02E2E16AE552E16EE552E7CFD9FF08
:103110001200D9CFE6FFE1CFD9FF060EE126DE6A25
:10312000DD6A020EDB6A030EDB6A040EDB6A050E43
:10313000DB6AD950020FE96EDACFEAFF010EEE1812
:1031400001E1ED5001E11AD19E96C580D9CFE9FF8A
:10315000DACFEAFF880EEE1802E1130EED1824E133
:10316000E66AE66ADFEC1DF0E552E552830EE66E94
:10317000420EE66E000EE66E6CEC1EF0E552E55275
:10318000E552010EE66EE66ADFEC1DF0E552E5520F
:10319000720EE66E420EE66E000EE66E6CEC1EF0EF
:1031A000E552E552E552DCD7DF2A010E01E3DB2AC6
:1031B0009E50080B01E0010E006E016A00500110E4
:1031C000C5E0DE6ADD6A0000000000001ACFC9FF1A
:1031D0009E96DE6ADD6AD9CFE9FFDACFEAFF880E74
:1031E000EE1802E1130EED1824E1E66AE66ADFEC60
:1031F0001DF0E552E552830EE66E420EE66E000EBD
:10320000E66E6CEC1EF0E552E552E552010EE66EFC
:10321000E66ADFEC1DF0E552E552720EE66E420EF4
:10322000E66E000EE66E6CEC1EF0E552E552E552DD
:10323000DCD7DF2A010E01E3DB2A9E50080B01E0F8
:10324000010E006E016A00500110C5E0C550400B30
:1032500001E0010E006E016A0050011008E1010E4C
:10326000F36E020EF3CFDBFF030EDB6A86D0020E95
:10327000DB6A030EDB6A020E0F011A250F011A6FBB
:10328000000E0F011B210F011B6FC950E66ED950B4
:10329000040FE96EDACFEAFFE552E750EE6EED6A11
:1032A0000F01A00E1A5D000E1B5925E3E66AE66ABF
:1032B000DFEC1DF0E552E552830EE66E420EE66E3F
:1032C000000EE66E6CEC1EF0E552E552E552010E82
:1032D000E66EE66ADFEC1DF0E552E552610EE66E41
:1032E000420EE66E000EE66E6CEC1EF0E552E55204
:1032F000E552DCD742D09E96C584D9CFE9FFDACF1C
:10330000EAFF880EEE1802E1130EED1824E1E66ADA
:10331000E66ADFEC1DF0E552E552830EE66E420EE2
:10332000E66E000EE66E6CEC1EF0E552E552E552DC
:10333000010EE66EE66ADFEC1DF0E552E552720E14
:10334000E66E420EE66E000EE66E6CEC1EF0E55286
:10335000E552E552DCD7DF2A010E01E3DB2A9E505D
:10336000080B01E0010E006E016A00500110C5E07B
:10337000DE6ADD6A000000000000DBD6060EE15CBC
:1033800002E2E16AE552E16EE552E7CFD9FF1200B1
:10339000D9CFE6FFE1CFD9FF030EE126010EDB6AAC
:1033A000020EDB6A9E96C580D950010FE96EDACF16
:1033B000EAFF880EEE1802E1130EED1824E1E66A2A
:1033C000E66ADFEC1DF0E552E552830EE66E420E32
:1033D000E66E000EE66E6CEC1EF0E552E552E5522C
:1033E000010EE66EE66ADFEC1DF0E552E552720E64
:1033F000E66E420EE66E000EE66E6CEC1EF0E552D6
:10340000E552E552DCD7010EDB2A020E01E3DB2A8E
:103410009E50080B01E0010E006E016A0050011081
:10342000C3E0010EDB6A020EDB6A00000000000050
:103430001ACFC9FF9E96010EDB6A020EDB6AD950D5
:10344000010FE96EDACFEAFF880EEE1802E1130EE3
:10345000ED1824E1E66AE66ADFEC1DF0E552E5527C
:10346000830EE66E420EE66E000EE66E6CEC1EF00B
:10347000E552E552E552010EE66EE66ADFEC1DF01C
:10348000E552E552720EE66E420EE66E000EE66EF4
:103490006CEC1EF0E552E552E552DCD7010EDB2A5A
:1034A000020E01E3DB2A9E50080B01E0010E006EC4
:1034B000016A00500110C3E0C550400B01E0010E4D
:1034C000006E016A0050011024E0E66AE66ADFEC53
:1034D0001DF0E552E552830EE66E420EE66E000EDA
:1034E000E66E6CEC1EF0E552E552E552010EE66E1A
:1034F000E66ADFEC1DF0E552E552610EE66E420E23
:10350000E66E000EE66E6CEC1EF0E552E552E552FA
:10351000DCD7000000000000C96A9E96010EDB6A3D
:10352000020EDB6AD950010FE96EDACFEAFF880E8E
:10353000EE1802E1130EED1824E1E66AE66ADFEC0C
:103540001DF0E552E552830EE66E420EE66E000E69
:10355000E66E6CEC1EF0E552E552E552010EE66EA9
:10356000E66ADFEC1DF0E552E552720EE66E420EA1
:10357000E66E000EE66E6CEC1EF0E552E552E5528A
:10358000DCD7010EDB2A020E01E3DB2A9E50080B7A
:1035900001E0010E006E016A00500110C3E0C55049
:1035A000400B01E0010E006E016A0050011024E0A2
:1035B000E66AE66ADFEC1DF0E552E552830EE66E40
:1035C000420EE66E000EE66E6CEC1EF0E552E55221
:1035D000E552010EE66EE66ADFEC1DF0E552E552BB
:1035E000610EE66E420EE66E000EE66E6CEC1EF0AC
:1035F000E552E552E552DCD70000000000009E963F
:10360000C582D950010FE96EDACFEAFF880EEE18B5
:1036100002E1130EED1824E1E66AE66ADFEC1DF024
:10362000E552E552830EE66E420EE66E000EE66E41
:103630006CEC1EF0E552E552E552010EE66EE66ACC
:10364000DFEC1DF0E552E552720EE66E420EE66EBC
:10365000000EE66E6CEC1EF0E552E552E552DCD74A
:10366000010EDB2A020E01E3DB2A9E50080B01E06B
:10367000010E006E016A00500110C3E0010EDB6A0A
:10368000020EDB6A000000000000010E0F011A2587
:10369000C96E9E96010EDB6A020EDB6AD950010FDD
:1036A000E96EDACFEAFF880EEE1802E1130EED188C
:1036B00024E1E66AE66ADFEC1DF0E552E552830E8E
:1036C000E66E420EE66E000EE66E6CEC1EF0E55203
:1036D000E552E552010EE66EE66ADFEC1DF0E552BA
:1036E000E552720EE66E420EE66E000EE66E6CEC71
:1036F0001EF0E552E552E552DCD7010EDB2A020E40
:1037000001E3DB2A9E50080B01E0010E006E016A06
:1037100000500110C3E0C550400B01E0010E006EE7
:10372000016A0050011024E0E66AE66ADFEC1DF051
:10373000E552E552830EE66E420EE66E000EE66E30
:103740006CEC1EF0E552E552E552010EE66EE66ABB
:10375000DFEC1DF0E552E552610EE66E420EE66EBC
:10376000000EE66E6CEC1EF0E552E552E552DCD739
:103770000000000000009E96C586D950010FE96E3A
:10378000DACFEAFF880EEE1802E1130EED1824E1FD
:10379000E66AE66ADFEC1DF0E552E552830EE66E5E
:1037A000420EE66E000EE66E6CEC1EF0E552E5523F
:1037B000E552010EE66EE66ADFEC1DF0E552E552D9
:1037C000720EE66E420EE66E000EE66E6CEC1EF0B9
:1037D000E552E552E552DCD7010EDB2A020E01E389
:1037E000DB2A9E50080B01E0010E006E016A0050BA
:1037F0000110C3E0010EDB6A020EDB6A000000006C
:103800000000C950DF6E9E96C58AC588D950010F49
:10381000E96EDACFEAFF880EEE1802E1130EED181A
:1038200024E1E66AE66ADFEC1DF0E552E552830E1C
:10383000E66E420EE66E000EE66E6CEC1EF0E55291
:10384000E552E552010EE66EE66ADFEC1DF0E55248
:10385000E552720EE66E420EE66E000EE66E6CECFF
:103860001EF0E552E552E552DCD7010EDB2A020ECE
:1038700001E3DB2A9E50080B01E0010E006E016A95
:1038800000500110C3E0010EDB6A020EDB6A00008B
:10389000000000009E96C584D950010FE96EDACF72
:1038A000EAFF880EEE1802E1130EED1824E1E66A35
:1038B000E66ADFEC1DF0E552E552830EE66E420E3D
:1038C000E66E000EE66E6CEC1EF0E552E552E55237
:1038D000010EE66EE66ADFEC1DF0E552E552720E6F
:1038E000E66E420EE66E000EE66E6CEC1EF0E552E1
:1038F000E552E552DCD7010EDB2A020E01E3DB2A9A
:103900009E50080B01E0010E006E016A005001108C
:10391000C3E0010EDB6A020EDB6A0000000000005B
:10392000DF5000D0006E030EE15C02E2E16AE55276
:0C393000E16E0050E552E7CFD9FF120015
:04393C00D9CFE6FFFA
:10394000E1CFD9FF020EE126958095829584958678
:103950008C8C000000008350DF6E8C9CDF50006E6A
:10396000016A040ED89000360136E804FBE1010E2E
:1039700000C0DBFF8C8C000000008350DF6E8C9C4D
:10398000000EDB98DB9ADB9CDB9EDF50006E010EA5
:10399000DBCFE7FF0050E712010EE7CFDBFF95908A
:1039A000959295949596010EDB5000D0006E020E14
:1039B000E15C02E2E16AE552E16E0050E552E7CFD8
:1039C000D9FF1200D9CFE6FFE1CFD9FF030EE126E0
:1039D000010EDB6A020EDB6A8C988C8AAFDFDF6E29
:1039E000D950010FE96EDACFEAFFE80EEE1802E1D6
:1039F000030EED1804E18A828A848A86FCD7010EC0
:103A0000DB2A020E01E3DB2ADF50006E016A005060
:103A1000800BE4E18C9A0400010EDB6A020EDB6A83
:103A2000030EE15C02E2E16AE552E16EE552E7CFA6
:103A3000D9FF1200D9CFE6FFE1CFD9FFE652FE0E43
:103A4000DB50006E016A0050011002E08C9801D03A
:103A50008C888C9A8C8C8C968C948C928C90000098
:103A600000008C50DF6E000EDB90DB92DB94DB9667
:103A7000DFCF00F0FD0EDBCF01F00F0E01140010C0
:103A80008C6E000000008C9CE552E552E7CFD9FF18
:103A90001200D9CFE6FFE1CFD9FFFD0EDB50006E5B
:103AA000016A040ED89001320032E804FBE10050B4
:103AB000E66EFE0EDB50E66EBDDFE552E552FD0E12
:103AC000DB50E66EFE0EDB50E66EB4DFE552E552EB
:103AD000E552E7CFD9FF1200959E959C959A959C4B
:103AE00095909592959495968C9E8C8E8C988C9AA8
:103AF0008C9C8C8C67DF020EE66E010EE66E9ADF00
:103B0000E552E5525FDF020EE66E010EE66E92DFD1
:103B1000E552E55257DF080EE66E010EE66E8ADFCB
:103B2000E552E5524FDFE66A010EE66E83DFE552AD
:103B3000E55248DF0C0EE66E010EE66E7BDFE552C5
:103B4000E55240DFE66A010EE66E74DFE552E552AB
:103B500039DF010EE66EE66E6DDFE552E55232DFCB
:103B6000E66A010EE66E66DFE552E5522BDF020ED5
:103B7000E66E010EE66E5EDFE552E55223DF040ECF
:103B8000E66E010EE66E56DFE552E5521BDF0E0EC5
:103B9000E66E010EE66E4EDFE552E55213DF07D802
:103BA000E66AE66A0CD8E552E5528C8E1200010EE8
:103BB000E66EE66E6EDFE552E552E2EF1CF0D9CF1D
:103BC000E6FFE1CFD9FFFD0EDB50026E036A03343E
:103BD00004E202500108000E03540DE3FE0EDB5018
:103BE000046E056A053404E204500F08000E055403
:103BF00002E3000E01D0010E006E016A00500110B8
:103C000001E022D0FD0EDB50026E036A010E0218A5
:103C100001E1035009E1FE0EDB50006E016AC00EA7
:103C20000012000E011208D0FE0EDB50006E016A79
:103C3000800E0012000E01120050E66E010EE66EBC
:103C400028DFE552E552BEDEE552E7CFD9FF12008C
:103C5000D9CFE6FFE1CFD9FFFE0EDB50E66EE66A74
:103C600018DFE552E552AEDEE552E7CFD9FF12008C
:103C7000D9CFE6FFE1CFD9FFFE0EDB50006E016A1F
:103C80000A0E356E366A00C030F001C031F084ECA7
:103C900023F030C000F031C001F0300E0024E66E99
:103CA000D7DFE552FE0EDB50006E016A0A0E356E5C
:103CB000366A00C030F001C031F084EC23F02CC033
:103CC00000F02DC001F0300E0024E66EC1DFE55299
:103CD000E552E7CFD9FF1200D9CFE6FFE1CFD9FFF8
:103CE000E652DF6ADF50026E036A046A03BE0468AC
:103CF000D950FC0FE96EFF0EDA20EA6EEE50022476
:103D0000F36EEE500320F46EEE500420F86EF4CF04
:103D1000F7FFF3CFF6FF0800F5CF00F0016A00BE11
:103D200001680050011023E0DF50DF2A026E036AB1
:103D3000046AD950FC0FE96EFF0EDA20EA6EEE50ED
:103D40000224F36EEE500320F46EEE500420F86E61
:103D5000F4CFF7FFF3CFF6FF0800F5CF00F0016ACC
:103D600000BE01680050E66E73DFE552BBD7E55236
:083D7000E552E7CFD9FF120074
:083D78009E50200B01E0010E3A
:103D8000026E036A0250031009E09D50200B01E00F
:103D9000010E046E056A0450051002E1000E01D008
:103DA000010E006E016A0050011005E0AE50E66E93
:103DB00051D8E5529E9A9E50100B01E0010E026E02
:103DC000036A0250031009E09D50100B01E0010E40
:103DD000046E056A0450051002E1000E01D0010EC8
:103DE000006E016A0050011004E0CED8000901E025
:103DF000E1D81200B06A190EAF6EAC98AB8EAC8AE7
:103E0000AB889D8A9D889E9A9E9800019D6B9DC05F
:103E10009CF09DC0A7F09DC0A6F01200D9CFE6FF90
:103E2000E1CFD9FFFE0EDB2ADB50006E016AFD0EEA
:103E3000DB50026E036A0250001802E103500118C1
:103E400002E1FE0EDB6AFE0EDB5000D0E552E7CF4A
:103E5000D9FF1200D9CFE6FFE1CFD9FFFE0EDB502C
:103E6000E66E0001A651EA6A9E0FE96E000EEA2294
:103E7000E552E750EF6E080EE66EA651E66ECEDF15
:103E8000E552E5520001A66FA651006E016AA751E6
:103E9000026E036A0250001802E10350011809E1A2
:103EA000080EE66EA751E66EB9DFE552E552000155
:103EB000A76FE552E7CFD9FF12000001A651026EAD
:103EC000036AA751046E056A0450021802E1055006
:103ED000031802E1000E01D0010E006E016A0050CD
:103EE00000D01200D9CFE6FFE1CFD9FFE6520001A2
:103EF000A751EA6A9E0FE96E000EEA22EF50DF6ECC
:103F0000080EE66EA751E66E89DFE552E552000124
:103F1000A76FDF5000D0E552E552E7CFD9FF12007E
:103F2000D9CFE6FFE1CFD9FFFE0EDB50E66E0001F0
:103F30009C51EA6A600FE96E000EEA22E552E750F2
:103F4000EF6E3C0EE66E9C51E66E68DFE552E55280
:103F500000019C6F9C51006E016A9D51026E036AC4
:103F60000250001802E10350011809E13C0EE66E10
:103F70009D51E66E53DFE552E55200019D6F9D882D
:103F8000E552E7CFD9FF120000019C51006E016A93
:103F90009D51026E036A0250001802E1035001189D
:103FA00002E09D8801D09D989D50100B01E0010E0C
:103FB00000D0120000019D51EA6A600FE96E000E08
:103FC000EA22EF50AD6E3C0EE66E9D51E66E26DFA6
:103FD000E552E55200019D6F1200D9CFE6FFE1CF17
:103FE000D9FFE652DF6ADF50026E036A046A03BE3D
:103FF0000468D950FC0FE96EFF0EDA20EA6EEE502D
:104000000224F36EEE500320F46EEE500420F86E9E
:10401000F4CFF7FFF3CFF6FF0800F5CF00F0016A09
:1040200000BE01680050011023E0DF50DF2A026E5D
:10403000036A046AD950FC0FE96EFF0EDA20EA6EBB
:10404000EE500224F36EEE500320F46EEE50042086
:10405000F86EF4CFF7FFF3CFF6FF0800F5CF00F0CE
:10406000016A00BE01680050E66E5ADFE552BBD718
:0A407000E552E552E7CFD9FF120038
:06407A0020202A5B4852E1
:10408000535D002020202052423A4E657874005241
:10409000413A0020202A5B4D494E5D0052423A5B76
:1040A0004D494E5D202054494D45200052413A5B18
:1040B00048525D200053797374656D2054696D65B5
:1040C000203A20005241343D536574205242303D25
:1040D0004D656E750054494D45202000202020205C
:1040E00020436C6F636B005241343D5B465D205250
:1040F00042303D45786974005241343D5B435D2058
:104100005242303D45786974005B435D20202000B9
:104110005B465D2020200054656D70203D2000200E
:104120002054656D70657261747572650020202081
:10413000202020202020204B65793A002500505770
:104140004D3A20005241343D2B3225205242303D21
:1041500045786974002D2D2D004233200043342012
:1041600000433423004434200044342300453420E9
:1041700000463420004634230047342000473423CF
:1041800000413420004134230042342000433520D4
:1041900000433523004435200044352300453520B5
:1041A000004635200046352300473520004735239B
:1041B00000413520004135230043360044362000BD
:1041C0004436230046362000473620004136200082
:1041D000433720004437230046372300423720006E
:1041E00044382300204B65793A0050574D3A00205F
:1041F0002020202042757A7A6572002056202020E7
:104200002041444320436F756E743A005D20524252
:10421000303D204578697400205620202000566FDC
:104220006C7473203D20005241343D4E65787420FB
:104230005242303D4E6F7700202020566F6C746DD7
:1042400065746572002050494344454D203220502A
:104250004C5553002020204D6963726F636869706C
:1042600000202020436F6D6D73204572726F7220A5
:1042700020002054696D656F757420204661756C4F
:1042800074200020202054656D702053656E736F7C
:044290007220200078
:0C4294000F01189F189D189B189918978F
:1042A000189518931891199F199D199B1999199789
:1042B00019951993199112008050100B01E0010E0D
:1042C000006E016A0050011012E10F011C51006ED6
:1042D000016A0050011006E01C0703E10F0119817B
:1042E000189104D0020E1C6F0F01188104D00F0129
:1042F0001C6B0F0118918150010B006E016A005078
:10430000011012E10F011D51006E016A00500110F1
:1043100006E01D0703E10F011983189304D0020E74
:104320001D6F0F01188304D00F011D6B0F0118932F
:104330001200D9CFE6FFE1CFD9FFE652070E0E6E8D
:104340000F6A0F011951800B01E0010E0EC00CF035
:104350000FC00DF0000A05E0D8900C360D36E804C9
:10436000FBE1060E126E136A0F011951400B01E0BA
:10437000010E12C010F013C011F0000A05E0D89031
:1043800010361136E804FBE10C5010100A6E0D5087
:1043900011100B6E050E166E176A0F011951200BC6
:1043A00001E0010E16C014F017C015F0000A05E078
:1043B000D89014361536E804FBE10A501410086E44
:1043C0000B501510096E040E1A6E1B6A0F0119515D
:1043D000100B01E0010E1AC018F01BC019F0000A02
:1043E00005E0D89018361936E804FBE1085018109B
:1043F000066E09501910076E030E1E6E1F6A0F011C
:104400001951080B01E0010E1EC01CF01FC01DF069
:10441000000A05E0D8901C361D36E804FBE1065082
:104420001C10046E07501D10056E020E226E236ACA
:104430000F011951040B01E0010E22C020F023C02E
:1044400021F0000A05E0D89020362136E804FBE18F
:1044500004502010026E05502110036E0F011951F7
:10446000020B01E0010EDEEC23F00250F310006EAF
:104470000350F410016E266A276A0F011951010BCF
:1044800026C024F027C025F0000A05E0D890243685
:104490002536E804FBE100502410DF6EDF5000D029
:0A44A000E552E552E7CFD9FF120004
:0644AA009E50010B006EA4
:1044B000016A0050011007E0CF8E13D80F01010EE2
:1044C0001F6F9E90F2921200800ECF6ECE6A890E00
:1044D000CD6ECC6A9E909D800F010C6B0B6B0A6BAE
:1044E00012000F010A2B0A51006E016A3C0E0018DF
:1044F00001E1015015E10A6B0B2B0B51006E016AB3
:104500003C0E001801E101500BE10B6B0C2B0C5120
:10451000006E016A180E001801E1015001E10C6BF8
:1045200012000F010A6B0B2B0B51006E016A3C0E3F
:10453000001801E101500BE10B6B0C2B0C51006ECC
:10454000016A180E001801E1015001E10C6B120024
:104550000F010A6B0B070B51006E016AFF0E00186A
:1045600001E101500DE13B0E0B6F0C070C51006E89
:10457000016AFF0E001801E1015002E1170E0C6FF5
:1045800012000F010A6B0C2B0C51006E016A180E01
:10459000001801E1015001E10C6B12000F010A6BE0
:1045A0000C070C51006E016AFF0E001801E101506A
:0845B00002E1170E0C6F12006E
:0845B8004C0EF66E2E0EF76E9C
:1045C000000EF86E0F010900F550056F0900F55057
:1045D000066F03E1056701D03DD00900F550006F7B
:1045E0000900F550016F0900F550026F090009003C
:1045F000F550E96E0900F550EA6E0900090009005E
:10460000F550036F0900F550046F09000900F6CF5B
:1046100007FFF7CF08FFF8CF09FF00CFF6FF01CF64
:10462000F7FF02CFF8FF0F01035302E1045307E045
:104630000900F550EE6E0307F8E20407F9D707CF3B
:10464000F6FF08CFF7FF09CFF8FF0F010507000EAF
:06465000065BBFD712005B
:0A46560094840C0EBD6EBD9ABD9851
:104660000F01010E496F7E90020E516F51857E50F1
:10467000010B006E016A0050011001E1F8D7120031
:10468000D9CFE6FFE1CFD9FFFD0EDB500F01526F0E
:104690000F011E51BE6EFE0EDB50006E016A00500F
:1046A000011002E0949401D09484E552E7CFD9FF41
:0246B0001200F6
:0E46B200C080C082C084C194C196C294C296DA
:1046C000C298C29AC08EC280120000000000000092
:1046D000C282C250020B01E0010E006E016A00505E
:1046E000011001E0F6D7C450026E02C003F0026A66
:1046F000C35000010210006E03C001F000C0F3FFC0
:0847000001C0F4FF00D012001B
:08470800286A36AE8DEF23F0A4
:10471000356C361EE86A3622281E31AE95EF23F03E
:10472000306C311EE86A3122281EAAEC23F031BE1B
:10473000A5EF23F028AE000C306C311EE86A312260
:104740002C6C2D1EE86A2D22000C28BE9CEF23F055
:044750002988FF0CA9
:0C4754002D6A2C6A100EE76ED8903036EB
:1047600031362C362D3635502C5C36502D5805E31D
:1047700035502C5E36502D5A302AE72EF0D71200D5
:10478000380EF36E00EE00F00F0E01D81200EA6052
:1047900002D0EE6AFCD7F350E9601200EE6AFCD753
:1047A0001EEE00F02EEE00F0F86A299CDCEC22F000
:0C47B00003EC00F0D4EC00F0FBD712008A
:0447BC00F36AF46A3E
:1047C000F32A0F0B05E0D890F336F436E804FBE14A
:0247D0001200D5
:020000040030CA
:0100010048B6
:0100020009F4
:0100030000FC
:010005008179
:010006008079
:010008000FE8
:01000900C036
:01000A000FE6
:01000B00E014
:01000C000FE4
:01000D0040B2
:00000001FF
